:020000041000EA
:1000000000B5324B212058609868022188439860DF
:10001000D860186158612E4B002199600421596104
:100020000121F02299502B49196001219960352056
:1000300000F044F80222904214D00621196600F024
:1000400034F8196E01211966002018661A6600F04E
:100050002CF8196E196E196E052000F02FF8012189
:100060000842F9D1002199601B49196000215960AB
:100070001A491B48016001219960EB211966A021F2
:10008000196600F012F800219960164914480160C1
:100090000121996001BC002800D000471248134993
:1000A000086003C880F30888084703B5996A0420EC
:1000B0000142FBD001200142F8D103BD02B5186610
:1000C0001866FFF7F2FF186E186E02BD00000240BE
:1000D000000000180000070000035F00212200005C
:1000E000F4000018222000A00001001008ED00E03C
:1000F000000000000000000000000000070B8FD58A
:10010000501F00208D120010FB5900101912001012
:1001100000000000000000000000000000000000DF
:10012000000000000000000000000000A51000100A
:100130000000000000000000451000100D19001024
:1001400019110010191100101911001019110010C7
:1001500019110010191100101911001019110010B7
:1001600019110010191100101911001019110010A7
:100170001911001019110010191100101911001097
:100180001911001019110010191100101911001087
:100190001911001019110010191100101911001077
:0801A0001911001019110010E3
:1001A800002934D00123002210B488422CD3012422
:1001B8002407A14204D2814202D209011B01F8E7B7
:1001C800E400A14204D2814202D249005B00F8E770
:1001D800884201D3401A1A434C08A04202D3001B9C
:1001E8005C0822438C08A04202D3001B9C082243CF
:1001F800CC08A04202D3001BDC082243002803D00D
:100208001B0901D00909E3E7100010BC704701B5CC
:10021800002000F05FF802BD0029F8D003B5FFF711
:10022800C1FF0EBC4243891A1847C046002941D075
:1002380010B404004C40A44601230022002900D534
:100248004942002800D5404288422CD30124240783
:10025800A14204D2814202D209011B01F8E7E4005D
:10026800A14204D2814202D249005B00F8E78842E9
:1002780001D3401A1A434C08A04202D3001B5C0861
:1002880022438C08A04202D3001B9C082243CC08BE
:10029800A04202D3001BDC082243002803D01B091C
:1002A80001D00909E3E710006446002C00D540425C
:1002B80010BC704701B5002000F00CF802BDC04624
:1002C8000029F7D003B5FFF7B3FF0EBC4243891AE4
:1002D8001847C0467047C0461C2101231B0498429A
:1002E80001D3000C10391B0A984201D3000A0839BF
:1002F8001B09984201D30009043902A2105C401876
:100308007047C04604030202010101010000000019
:1003180000000000002B11D1002A0FD1002900D1C4
:10032800002802D00021C943080007B4024802A1EE
:100338004018029003BDC0469DFFFFFF03B4684606
:1003480001B5029800F02AF8019B9E4602B00CBC49
:100358007047C046D0400B00D1409C46203AD3405D
:100368001843524263469340184370479140030034
:1003780090409C46203A9340194352426346D340EA
:100388001943704710B5002903D1FFF7A5FF2030A6
:1003980002E00800FFF7A0FF10BDC046F0B5060058
:1003A8000F0015001C0085B08B4263D801D1824232
:1003B80060D821002800FFF7E5FF390000903000E1
:1003C800FFF7E0FF009B21001B1A1A002800039387
:1003D800FFF7CCFF00900191B94245D801D1B04256
:1003E80042D8009B019C01200021039AF61AA741DC
:1003F800FFF7BCFF04000D00039B002B2BD0019BD3
:10040800009ADB0750081843019B5908039B9C4638
:10041800B9422CD801D1B04229D832003B00121A77
:100428008B41012692185B410027B6185F410123D2
:100438005B429C446346002BEAD130003900039AA2
:10044800FFF788FF039AA4197D4106000F00FFF704
:100458008DFF241A8D410A9B002B01D01E605F601E
:100468002000290005B0F0BD00240025C4E7B61916
:100478007F41DCE700240025EDE7000070B513009C
:1004880085680469DA0208D5C0221203134204D031
:10049800DA0702D5C02212035340094A1A40DB0783
:1004A80007D5236801268E40334323602B6898477D
:1004B80070BD236801268E40B3432360F6E7C0462B
:1004C800FFFFEFFF10B5024802F01AF810BDC04652
:1004D8009C08002030B589B08024A402324821004D
:1004E80005F04BF93148210005F047F9304806F08E
:1004F800C5F9002820D12F4805F093F909B030BD7F
:100508002D4805F08EF921E02C4C01225242D317D8
:10051800200001F035FF2A4B00221A70200001F05C
:10052800B3FF36E0214B18681979012205F040F92C
:100538002448002102F098FB1B4805F046F91C48A6
:100548008368DB68392198470028D9DB184CA568EF
:100558002B6906AA0D21200098472B6904AA1021AF
:10056800200098472B6902AA1C2120009847049B69
:10057800079A06991448029C009405F052F913480A
:1005880005F04FF9049B603BFF3BE0225200934289
:10059800BAD9029B022BC5D0044B186819790022DE
:1005A80005F006F9C4E7C046B0060020A8060020FA
:1005B800F86C0010D46E0010F06E0010880800204F
:1005C800600C002030750000F86E0010386F0010C5
:1005D80070B580210F48890205F0CFF805E00D4875
:1005E80005F0F3F8FA2005F005F90B4C0122524208
:1005F800D317200001F0C4FE084B1D78200001F03D
:1006080043FF002DEBD1034B18681979002205F040
:10061800CFF8E7E79806002088080020600C002043
:10062800D0B58021144C4902200005F0A6F8D0214D
:100638008904200005F099F82279012393400F4995
:100648000F4A4A608B60206805F0C9F80126764297
:10065800F7170C4832003B0001F070FF0A4C3200DB
:100668003B00200001F08CFE084B01221A7020008C
:1006780001F00AFFEAE7C046A0060020380B002078
:10068800CD0400109C08002088080020600C002081
:1006980010B5024B1B68984710BDC046B80600202D
:1006A800014B18607047C046B806002010B582B0EC
:1006B80002000B00034C00210091200000F0C0F95B
:1006C80002B010BD9906001010B5040002680020A1
:1006D80005E083001B185B00013258183038117888
:1006E800024B5B5C5B07F4D4226010BD25760010DA
:1006F80010B50400080001221EE0237804210B43F2
:100708002370002A16D0013014E0237808210B4307
:100718002370F6E7237810210B432370F1E7237841
:1007280020210B432370ECE7237840210B432370EF
:10073800E7E70022002A08D00378203BD9B2102925
:10074800F7D88B000649CB589F462278442313409C
:10075800442B00D010BD1300402293432370F9E7C7
:10076800946F001010B504000B784C3BDAB22E2AB7
:100778004DD89300294AD3589F46481C4B78682B7C
:1007880006D063787822934310221343637021E0E4
:10079800637878229343082213436370881C19E016
:1007A800481C4B786C2B06D0637878229343182228
:1007B800134363700EE06378782293432022134337
:1007C8006370881C06E043787822934328221343F9
:1007D8004370481C10BD437878229343302213435A
:1007E8004370481CF6E74378782293433822134332
:1007F8004370481CEEE74378782293434022134322
:100808004370481C2378022213432370E2E763787D
:100818007822934363700800DCE7C046D86F001065
:1008280030B50200481C0B78D370782B15D86E2B86
:1008380028D2692B11D8582B15D31C00583CE4B288
:100848000121A140E2242402214213D13A4C214241
:1008580055D18424A402214239D1137801210B43B4
:100868001370002341E0412B04D0F6D3453BDBB2A3
:10087800022BF2D8937807218B4304210B43937002
:10088800012332E019006E39C9B201248C402B498A
:1008980021404D1EA941CDB2002930D1243121403B
:1008A8004B1E9941CBB2002939D101310D002540A9
:1008B8002142D2D091780724A14303242143917087
:1008C80054787821214040290FD12B000DE09178F0
:1008D8000724A143012421439170547878212140B1
:1008E800402913D0632B16D0002311788C07E40F0E
:1008F80023435B000224A1431943117030BD917852
:100908000724A143022421439170E6E714780125C6
:100918002C431470E6E74B1E9941CBB2E5E791787A
:100928000724A143032421439170517878240C4271
:10093800DBD12B00D9E7C046010800008204000083
:10094800F0B5DE4657464E464546E0B583B007004B
:100958000C0090469A460C9DD078284B1B5C0322CD
:100968001A40934604F0FEFF060014E05B46012B94
:100978001FD0D2B25732D2B2013D2A7032000023C2
:1009880038002100FFF7C6FCA14519D815D05545F8
:1009980016D907000C00019600239946320038004A
:1009A8002100FFF7B7FC092AE0D8D2B23032D2B220
:1009B800E2E7D2B23732D2B2DEE7019BBB42E6D9D8
:1009C80043461B789B0603D5082E09D0102E0ED05F
:1009D800280003B0F0BCBB46B246A946A046F0BD0D
:1009E80043469B780822134342469370F0E74346F8
:1009F8009B781022134342469370E9E7257600104E
:100A080043785B06180F002B04DB83000B48C358A0
:100A18009F460A6070470A70FCE70A80FAE70A6096
:100A2800F8E7D3170A604B60F4E7D3170A604B6006
:100A3800F0E70A60EEE70A60ECE7C0469470001041
:100A4800F0B5DE4657464E464546E0B591B005003E
:100A580089461600039300243078002800D16AE202
:100A6800252807D001364946A847002800DA63E25E
:100A78000134F1E704AF18220021380002F0FAFD32
:100A8800310006A804F04CFF02907B7ADB0741D5C1
:100A9800039B1A1D03921F68002F34DB04AB5B7A9B
:100AA8005A074AD5039B1A1D03921B689A46002BC6
:100AB8003ADB04AB0022079208929A7A5207520F47
:100AC8005B7A5B061B0F1900012A3FD0022A00D16E
:100AD80089E0042A00D1E0E0032A00D1F7E004AB62
:100AE8001A7A0323190011408B46134200D0F4E010
:100AF80004ABDB7A253BD9B2532900D988E18B00B6
:100B0800C149CB589F4604AA137A04210B43137298
:100B18007F42C3E704AB1B7A5BB2002B02DB0127E1
:100B28007F42BBE7079FB9E704AA537A02218B43A8
:100B3800537201235B429A46BBE79B0702D5089B89
:100B48009A46B6E701235B429A46B2E7052B37D0AF
:100B58000FD8032B2CD0042B18D1039B0733072263
:100B680093431A00083203921A685B68049205934B
:100B780013E00A330F221340012B07D8039B1A1DD9
:100B880003921B68DA170493059206E0039B1A1D6B
:100B980003921B68DA170493059201291CD00229D5
:100BA8009DD104AB00215A5ED1170492059196E7B6
:100BB800039B1A1D03921B68DA1704930592ECE74E
:100BC800039B0733072293431A00083203921A68DB
:100BD8005B6804920593E0E704AB00229A56D117AC
:100BE800049205917BE7052B44D00FD8032B2DD019
:100BF800042B18D1039B0733072293431A000832AA
:100C080003921A685B680492059313E00A330F2273
:100C18001340012B07D8039B1A1D03921B680493EA
:100C28000023059306E0039B1A1D03921B68049397
:100C380000230593012929D0022900D04FE7049BFE
:100C48001B041B0C04930023059348E704ABDB7AD1
:100C5800632B07D0039B1A1D03921B680493002380
:100C68000593E7E7039B1A1D03921B68049300236F
:100C78000593DFE7039B0733072293431A000832E3
:100C880003921A685B6804920593D3E7049BFF22DA
:100C9800134004930023059321E7082B0BD0039BF3
:100CA8000733072293431A00083203921A685B68D5
:100CB8000492059313E7039B0733033293431A0007
:100CC800083203921A685B680492059307E7039B4E
:100CD8001A1D03921B68049301E7029F3B00320030
:100CE8004946280004F053FE002800DA24E12418BD
:100CF8003E00B1E649462520A847002800DA1BE156
:100D080001345E463E236B449A460023984685E0AC
:100D1800049B98465346002B07DB5146404602F099
:100D28004DFD404482465E4678E0404602F018FD9C
:100D3800F7E7049B0AAA13705E4629236B449A4678
:100D480090466BE0130706D410231E00164013428A
:100D580002D0202600E02B26049A059B002B02DBFC
:100D68000492059307E000215042994104900591AF
:100D78002D2600E05E46049805993E236B440093B7
:100D88000AAB06AAFFF7DCFD80465346002B71DB51
:100D98003E236B4442469B1A04A90A7A40208243A8
:100DA8000A729A456AD95246D31A07933E236B446E
:100DB8009A4633E00498002807D15E46134B9A46BA
:100DC80005235B425344984628E004AE3E236B4417
:100DD80000930AAB06AA0021FFF7B2FD8046B37A5A
:100DE80010221343B3727823F3725E46CDE7049959
:100DF800220006A8FFF704FE5E463E236B449A468F
:100E0800002398460AE0C046BC700010B970001074
:100E18005E463E236B449A46002398464346002B81
:100E280000D186E053464246991A002E00D001317F
:100E380004AB9A7AD30625D50231079B5B18520674
:100E480001D5089A9B18002F31DDFF1A04AB1B7AD5
:100E58005B072CD404AB1B7A5B0617D5002E18D081
:100E680049463000A847002866DB01345E46302337
:100E78009B4610E03E236B449A46CFE73E236B44E3
:100E88009A46CBE71307D8D50131D6E720239B46EE
:100E980001E030239B463B005F1E002B07DD4946DF
:100EA8005846A847002847DB01343B00F4E7002EEA
:100EB80005D049463000A84700283DDB013404AB83
:100EC8009B7ADA06D20F1B07DB0F134305D049467E
:100ED8003020A84700282FDB013404AB9B7ADB06BF
:100EE80006D504ABD87A4946A847002824DB013444
:100EF800079B5E1E002B07DD49463020A8470028C7
:100F08001ADB01343300F4E75346424649462800C9
:100F180004F03DFD00280FDB2418002F07DD4946AB
:100F28002020A847002807DB0134013FF5E7029E8F
:100F380092E5029E90E5200011B0F0BCBB46B24697
:100F4800A946A046F0BDC046014910220A60704774
:100F580010ED00E0BFF34F8F30BF62B6BFF36F8F65
:100F68007047C04670B5002811DB8308134DC033A5
:100F78009B005C5903221040C000FC3216008640DA
:100F8800B44349010A40824022435A5170BD0F239D
:100F98000340083B9B0806339B00094A9446634478
:100FA8005C6803221040C000FC3215008540AC4349
:100FB80049010A40824022435A60E7E700E100E025
:100FC80000ED00E043B2000605D41F221A400123B9
:100FD8009340014A1360704700E100E030BFFDE72D
:100FE80010B5084BFF229343074A9360BFF34F8F16
:100FF800BFF36F8F01F0B0F801F086FE04F00DFD2D
:1010080001F006F90001001000ED00E0084A9368BD
:1010180058670849096899670749486880235B0544
:1010280003434B6062B6BFF36F8F9368986F704746
:10103800F40B00207875001000ED00E013498A6871
:1010480013481044EFF3098CF0C043464C4655460C
:101058005E466746F8C072B60E4F0F4E8A698A60C0
:101068003E60506F00235367002800D162B6084CD9
:1010780010191030F8C89846A146AA46B346BC468F
:101088002438F0C88CF3098870470000F40B00205E
:101098003000000004ED00E0000000080420714664
:1010A800014202D0EFF3098001D1EFF30880816992
:1010B800023909780229FFD001B504F089FC01BD85
:1010C80010B5203A094991610124A1439161136047
:1010D800029B5360039B9360049BD36080235B0453
:1010E800D36102650023436710BDC0464358001012
:1010F800064B9860101C81F30988002162B6BFF383
:101108006F8F0022002304F098FBC046F40B0020E8
:1011180001B5EFF305800549401AC00004490144B0
:1011280009C9984709BC9E460249084710000000B3
:10113800106D001041110010044B9968986988429D
:1011480002D00349034A0A6070470000F40B0020EC
:1011580004ED00E00000001070B50C008369023B4C
:101168001A88064B9A4206D00025012104F047FC54
:101178002070280070BD0568F7E7C04602DF000050
:10118800F0B58BB00C00204B5968C905C90D62B683
:10119800BFF36F8F130E1B06FF252D06AB4215D12B
:1011A8000C231340082B14D012070CD50027272531
:1011B8006D442A00200004F024FC06002B78002B44
:1011C8000AD00BB0F0BD04000127F0E70027002487
:1011D800EDE700270024EAE72022210001A802F019
:1011E80001FA002F06D0089BDA0507D1074A1343F6
:1011F800089303E0089B5B0A5B02089301A930008F
:1012080004F0E2FBDDE7C04600ED00E0FF0100006E
:10121800EFF30880EFF3098101B57246FFF7B0FFDD
:1012280001BDC04670B5002811DB8308134DC033DB
:101238009B005C5903221040C000FC321600864017
:10124800B44349010A40824022435A5170BD0F23DA
:101258000340083B9B0806339B00094A94466344B5
:101268005C6803221040C000FC3215008540AC4386
:1012780049010A40824022435A60E7E700E100E062
:1012880000ED00E072B607480749401880F3098866
:10129800EFF314800221084380F31488BFF36F8FA3
:1012A800FFF79EFE501200200008000010B50B4BFF
:1012B8009B68834202D001F0F5FC10BDEFF3058373
:1012C800002BF8D0064B5968802252050A435A6011
:1012D8005A6A04490A405A62EDE7C046F40B0020F6
:1012E80000ED00E0FF7FFFFF10B5034B034A044801
:1012F800012104F006FC10BD00200420000000209D
:101308000C72001010B50300064A90600868FF24AC
:10131800A043184310231843D0608B6801210B4366
:10132800136110BD90ED00E010B5034C2278012345
:1013380004F0BBFB207010BD610C0020034B05229C
:101348005A60BFF34F8FBFF36F8F704790ED00E087
:10135800BFF35F8F014B00225A60704790ED00E0A9
:1013680070B50E4B1D68082D15D8FFF7F1FF002446
:1013780009E00A4B596863001B199A008918200074
:10138800FFF7C0FF0134A542F3D8054B1D70FFF7E6
:10139800D5FF002070BD01204042FBE724720010F9
:1013A800610C0020014B18607047C046C006002041
:1013B800F8B507000E00002400E00134B44209DA51
:1013C8003D19054B1B68984728700A2801D00D283D
:1013D800F3D101342000F8BDBC060020F8B50500A3
:1013E8000F00002404E03078084B1B68984701344C
:1013F800BC4208DA2E192B5D0A2BF4D1034B1B686B
:101408000D209847EFE73800F8BDC046C006002019
:1014180010B503490522012004F084FBFEE7C0460D
:101428001C7200100300074A1268074950189B18DD
:10143800064A521A934202D2024A136070470120A8
:101448004042FBE7440B0020501F002000200420EE
:1014580010B50F4B0F4A1A600F4B104A1A60104B09
:101468009A680E4B9343FAD100F09CFB0A4B0D4A45
:101478001A600B4B9B68DB43DB01FAD1EFF3108357
:1014880072B6002B02D162B6BFF36F8F002010BD79
:1014980000E00040BFCDFFFF00F00040FE3F3C00F1
:1014A80000C00040FFFFFF0110B504000A2806D065
:1014B800E1B2064883685B689847200010BD03487E
:1014C80083685B680D219847F2E7C046986C001066
:1014D80010B5044C2000FFF765FF2000FFF7E0F887
:1014E80010BDC046B114001010B5064805F0C6F985
:1014F800002803D0FFF7ECFF002010BD1320404266
:10150800FBE7C046986C001070B50500066900241A
:1015180000E001341D2C15D8E30808339B000A4A63
:101528009A58072323409B00DA401207F1D00F2175
:10153800200000F0D9FC0122A240301D290004F04F
:101548006BFBE6E770BDC046004101400E4B984278
:1015580010D007D90D4B984212D00D4B984211D19B
:101568000A2006E00B4B984206D00B4B984205D157
:10157800042070470620FCE70220FAE70020F8E77D
:101588000820F6E70020F4E740420F0040E133006E
:10159800404B4C00A0860100801A060070B5056912
:1015A80043681A680023D06E0124A043D0661363F1
:1015B800136C2869C30653D540232343202633439D
:1015C800044203D00F342343083C23434408072034
:1015D8002040032826D8022834D201281FD1688C3D
:1015E8009061288C506106208343043803431360BC
:1015F80000239363D36353681068C0072BD589050C
:10160800890D9B0A9B020B432969C80604D5C907A3
:1016180023D5802149010B435360002070BD16205B
:101628004042FBE704280AD12720285C00281AD06A
:10163800688C9062288C506206200343D7E71620F6
:101648004042EBE7688C1062288CD0610620834307
:1016580002380343CBE79160D6E704490B40DBE748
:1016680016204042DAE716204042D7E7FFEFFFFF97
:1016780010B543681B681868DA6E0124A243DA665D
:10168800A04340229043C132FF320243202002434C
:10169800603002431A609960044A1A63DA6E224382
:1016A800DA660022DA639A63002010BD00F7FFFFB4
:1016B80010B503694268146899628979FFF7D8FF01
:1016C800014B236310BDC04664060000F0B5C64652
:1016D80000B50E0015001900046943681F68002A48
:1016E80000D178E03B6FDB0700D577E02423E35C8B
:1016F8001B0700D576E024239846E25C08239C4625
:1017080063461A43D2B24346E254FFF747FF804686
:10171800002804D1FB6E01221343FB6625E0242335
:101728000022E25453E02622A35C02200343A35480
:1017380030E02422A35C02200343DBB2A354252318
:10174800E15438E098239B003B6301225242D317AF
:10175800200000F0F3FE2423E35C5B0731D4A36987
:10176800002B2ED10C36013DEDB2002D2CD02620B9
:10177800235C326862617168A161327A2254002068
:10178800E0615340DB0703D504231A432623E254C0
:10179800012DC8D02422A35C03208343A35426230D
:1017A800E35CDB07C5D4A35C01210B43DBB2A35484
:1017B80025230022E2543B68DB07C3D50B4B3B6370
:1017C800C3E705235B42984624230022E25440469F
:1017D80080BCB846F0BD00239846F8E705235B4275
:1017E8009846F4E705235B429846F0E75F0200005D
:1017F800F8B5040046680769F068002104F019FD8F
:10180800051E01D02800F8BD0122524200213800EF
:1018180005F0A6F863681B68DA6E01218A43DA6668
:101828001A00FC321168134A91421DD11A68062326
:101838001340062B14D027230022FA547368200083
:101848009847B068FFF782FE1021014339612000F4
:1018580004F069FB00280AD124230022FA54D1E7B6
:1018680021330122FA54E9E705256D42CAE7052527
:101878006D42C7E74001574443685A68936B024971
:101888000B4093637047C0463FF8FFFF0B4B9868C7
:101898001A689968D20301D4884207D2084A1368A3
:1018A800084800681B181360044B1B68054B186830
:1018B800401A034B1B68C0187047C04610E000E090
:1018C800B80B0020C40B0020094A136A1B021B0A2C
:1018D8001362084B08491960084B00221A60084B2C
:1018E80059609A601A6807210A431A6000207047F5
:1018F80000ED00E0C40B0020D3300000B80B00203E
:1019080010E000E070B5FFF7C1FF0B4B18680B4AF9
:1019180011684018106000221A60094D2C68001BDD
:101928000849FEF73DFC074B4343E4182C6001F0DF
:10193800DFFAFFF701FC70BDB80B0020C00B0020D8
:10194800BC0B0020D4300000F0B5D6464F464646C2
:10195800C0B5002941D0431C35D03A4B1F68012837
:1019680041DD394B984241DC431E9946EFF3108321
:1019780072B69846FFF78AFF344B9C68344B1D6853
:1019880045191D60334B00221A60334B1E68AB1B90
:101998002FD4324A9246484650431818304B9C463A
:1019A80060441100FEF7FCFB53465843761B301881
:1019B8008023DB00984221D92A4B984220D9214B19
:1019C800284A1A601EE0214A136801218B431360DC
:1019D8001C4BFF2212061A6029E01A4B1F68431C91
:1019E800BDD11948BDE700239946BFE7164B994674
:1019F800BCE7144B8022D2001A6003E08020C000AC
:101A0800104B1860114B99680E4A1268013A5A60D7
:101A180000229A608C420FD27F1A3F190C4BEF19A3
:101A28001F604346002B02D162B6BFF36F8FE0BC44
:101A3800BA46B146A846F0BD611A054A6D18156048
:101A4800EFE7C046C40B00203D05000010E000E0B1
:101A5800C00B0020B80B0020BC0B0020D4300000C5
:101A6800D330000084C6FF0010B5EFF3108472B6BF
:101A7800FFF70CFF074B1B68C018074B1B68C01A01
:101A8800002C02D162B6BFF36F8F0449FEF788FBC2
:101A980010BDC046C00B0020BC0B0020D430000095
:101AA800F8B5DE4657464E464546E0B506000F00F7
:101AB80015000A9A93424ED31A0E92461B02984674
:101AC8000A9A002340465146FEF724FC81467400DA
:101AD800A419A4002E4B9C4664446368834200D238
:101AE8006060331FDBB29B46012B3AD9C0239B01B0
:101AF8002343802212011A60264BB200D1580029D4
:101B080005D05869FEF74CFB01300138FDD16D0155
:101B180023685D40E0222A4080235B0123431A604A
:101B28005A46012A28D980239B0123438022120187
:101B38001A604B4663604A46002340465146FEF70A
:101B4800E9FB144BB60098510120F0BCBB46B246E5
:101B5800A946A046F8BD104B104A11482D2101F0A6
:101B680057FA012FC2D1C0239B01234303221A60D5
:101B7800A368DB07FCD5CAE72168794003220A403D
:101B88001A60A3680125BD401D42FAD0CBE7C046C4
:101B980000800040C80B00201C7400107C740010EA
:101BA8003074001030B583B00C2000F021F900F03B
:101BB80027F900280DD0002304E02E4A99002E486A
:101BC80088500133092BF8D92A4B2C4A5A6203B0A2
:101BD80030BD2B4B00229A6700F0F6F8294B012202
:101BE8001A60274B5B6C012BFBD1274B03221A6031
:101BF800234B9B6B012BFBD1022400940533234A12
:101C08000121234800F054F800940523214A0121BA
:101C1800214800F04DF8214B0093002202210420B6
:101C2800FFF73EFF1E4D00952B00002201210520E5
:101C3800FFF736FF104C00942300002200210720F4
:101C4800FFF72EFF00942300002200210820FFF751
:101C580027FF0A4B00932300002200210920FFF7E9
:101C68001FFF00952B00002200210620FFF718FF18
:101C7800ADE7C046C80B0020006CDC021BB70000B3
:101C8800008000403CB0004030B00040002F685950
:101C98000080024000389C1C00C00240001BB700B6
:101CA80040597307014B8000C0587047C80B00208B
:101CB800F0B5CE4600B504000E0091461F000C207A
:101CC800FEF76EFA050043011B1A9901C91AC900EB
:101CD800091889014846FEF763FA0200103A98236A
:101CE8005B009A4233D87B1E062B36D8069B013BF5
:101CF800062B32D8069B9F4235D34B461B09AB4275
:101D080037D33F04069B1D032F432368002B36DB84
:101D1800234B9C4241D080235B01224A1360224A14
:101D28001360224A926819009143FAD12660A06094
:101D3800221DC0239B01134321221A602268002A16
:101D4800FCDAE76008221A6080BCB946F0BD184B7F
:101D5800184A1948162101F05BF9184B154A16481C
:101D6800192101F055F9164B124A13481F2101F0A9
:101D78004FF9144B0F4A1048222101F049F9226803
:101D88003F231340B342C3D1A3681B051B0D8342F5
:101D9800BED1E368002FBBD1D6E780239B01BCE707
:101DA80000C0024000E0004000F0004000C00040D9
:101DB8008C7400106C750010A8740010EC7400107E
:101DC8003875001050750010064BAA2212011A60CF
:101DD8002F22DA60044B054A1A60024B5B68002B1D
:101DE800FBDA7047004002400060024000B0FA0091
:101DF80080239B000343014AD3627047008005405B
:101E0800034B1B6802201840431E9841C0B270471C
:101E180000C0064010B58300084A944663441A6817
:101E280040246240803414408022520113431C60D5
:101E3800C000034B9C466044416010BD04C0014093
:101E48000040014080000B4B9C46604400290DD0A7
:101E58000823002A0CD004221343026853400C22A2
:101E68001A4080235B0103431A6070470023F0E7A0
:101E78000022F1E704C00140002909D08000094B85
:101E88009C46604480239B01034302221A607047EA
:101E98008000044B9C466044C0239B0103430222FC
:101EA8001A60F4E704C001408000064B9C46604479
:101EB80003684B400121194080235B0103431960EB
:101EC8007047C04604C001408000064B9C466044F1
:101ED80009010368594030220A4080235B0103430B
:101EE8001A60704704C00140072303409B00C008E4
:101EF80099403C308000014BC15070470040014080
:101F080010B5D0231B061B68002B03D0024B04F02E
:101F180090FC10BD014BFAE73041014000410140FF
:101F2800002909D08000094B9C46604480239B010E
:101F3800034340221A6070478000044B9C4660446B
:101F4800C0239B01034340221A60F4E704C0014008
:101F580070B504000D000620FFF7A4FEC00029009C
:101F6800FEF71EF9C60908D00E4B9E4217D87F23EC
:101F78000340013335005E0800E001256562A66272
:101F88002C3480239B01234300221A600620FFF78C
:101F980089FE8000A9018919FEF702F970BD0026A3
:101FA800014DEBE7FEFF0000FFFF0000002909D00C
:101FB8000A22064B9C46604443425841044B400069
:101FC800C252704780225200F3E7C0460080FCBF2F
:101FD800F00B002070B505000C000620FFF762FE2C
:101FE800002829D0164B9D4227D08022D203154BBA
:101FF8001A60154B1A60154B9B6811009943FAD16A
:1020080000212800FFF7D2FF21002800FFF7A0FFDA
:1020180029002C31EB6A602253400E321A4080238B
:102028005B010B431A600A4B2B6380239B010B4314
:1020380010221A600323AB6470BD80221204D6E715
:102048000080034000E0004000F0004000C0004075
:1020580001030000034B00E01833034A9342FBD30B
:102068007047C046806C0010106D001070B50500F8
:10207800104B8200D45809E0404216E0F36818700B
:10208800F268537801210B43537008346B1C094ADA
:102098009B009B58A3420CD9666823683000984778
:1020A800002EF2D00028EBD0E6DBFF28E6DDFF208B
:1020B800E4E770BD8475001070B586B0C4010F4B9D
:1020C800E41801020E4BC91843001818C0000D4B44
:1020D800C0180D4B802200250595012604960E3662
:1020E80003960295019500905200200000F0D4F864
:1020F800637B04229343637306B070BD300A0020EB
:10210800501A0020F40B00202169001010B50A4B6A
:1021180001241C700320FFF7A9FF00F071FF0420C1
:10212800FFF7A4FF00F0E8F804F078FD034A137BFA
:10213800A343137310BDC046620C0020B00A0020F0
:1021480010B50100024A034B1800FEF7D1FFC04644
:1021580015210010B00A002010B5034A0348121ACE
:10216800002104F0B9FB10BD640C0020B008002069
:1021780010B50400FFF7A0FFE0010A4BC0180A4B96
:1021880062001119C9005918C8600C75E1020748A6
:10219800091880200001844661441219D2009B1856
:1021A800596010BD300A0020F40B002050120020A6
:1021B80030B587B000F0BAFC104B114C9C61114B44
:1021C80080221149114805900120049000200390B5
:1021D800029001900090D200200000F05DF8050008
:1021E800637B042293436373200004F004FC002003
:1021F800FFF7BEFF280007B030BDC046F40B002033
:10220800B00A002015210010501B00207C7500101A
:1022180000B5A1B00020FFF729FF144B83F308880D
:1022280013490A6A134B1A40E0231B0413430B6239
:1022380003F0F2FBFEF788FEFFF792F8FFF754F879
:1022480001236A4653731373002319931A931C933B
:10225800094B9A60FFF7FEFE0120FFF707FF0220F7
:10226800FFF704FFFFF7A4FFFFF76AFF501A0020EB
:1022780000ED00E0FFFF00FFF40B002010B519008F
:10228800114302D104F03AFB10BD0249183000F0A6
:10229800A1FDF9E7336A0010F0B585B004000E001F
:1022A80015001F00030058338365C3650E9B042285
:1022B8000D9904F027FB2A003100200004F014FBDC
:1022C80005000C9B02930B9B01930A9B00933B0018
:1022D800020031002000FEF7F3FE00236365054B82
:1022E8009B68002B04D01B6F2367280005B0F0BD46
:1022F8002367FAE7F40B0020F0B589B01E4E14E00E
:10230800F368B26871683068F76A0597376A0497A6
:10231800F7690397B7690297776901973769009753
:10232800FFF7BAFF33685E653036144B9E42E7D339
:1023380000F0B4F9104E10E00693DB1707930699E6
:102348008A0F9D001543069A079B940012196B414A
:1023580092185B41FFF792FF3036084B9E4207D236
:10236800736A5A1CF8D03068002BE5DA0023E3E7DB
:1023780000F08AFB09B0F0BDE06D0010706E00102F
:10238800F0B5C64600B582B0040016001D00EFF394
:10239800108772B63B00C168002915D1002953D1B6
:1023A800374A9268927B52B222610131E160344A25
:1023B8009268A260002B02D162B6BFF36F8F002033
:1023C80002B080BCB846F0BD82682D488068824261
:1023D800E4D02900314339D0807B40B20E23D35654
:1023E8009846190004F09FFA0100804536DC002366
:1023F80098462448009601952200390000F094FA86
:102408000028DDD0EFF3108672B63500A368002BE4
:102418002BD02368A34226D0002B24D00E20185698
:10242800216904F080FA0100200004F087FA0028EE
:102438001ED14346002B1BD1002D02D162B6BFF33B
:102448006F8F0B204042BBE72269ADE7002F02D116
:1024580062B6BFF36F8F10204042B1E7200004F04E
:102468006DFA8046C5E72169DEE74346002BE3D0D5
:102478000448310000F0FAF80B204042A0E7C046BB
:10248800F40B0020180C002070B504008368002BA2
:102498002CD0194A926893422BD1C368012B03D9D7
:1024A800013BC360002070BDEFF3108672B601696E
:1024B80004F044FA200004F034FBA06000280CD09B
:1024C8000E23C35623610023836704F094FA0B4854
:1024D800310000F0CBF80020E5E70023E360002E90
:1024E80002D162B6BFF36F8F0020DCE716204042AE
:1024F800D9E701204042D6E7F40B0020180C002051
:1025080070B50400EFF3108572B604F00AFB0028DA
:1025180008D00023836704F06EFA0748290000F00A
:10252800A5F870BDA368E268934203D001229B1806
:10253800A360F2E70022FAE7180C002030B583B058
:10254800EFF3108172B68468002C09D0013C8460D6
:10255800002902D162B6BFF36F8F002003B030BDEF
:102568001C00144307D0084C00920193020020007D
:1025780000F0DAF9F2E7002902D162B6BFF36F8FF3
:1025880010204042EAE7C046180C0020C3897F2B80
:102598000DD8437BDB060CD10E228256084B1B68F4
:1025A8009A4208DB074B984207D0012000E0002040
:1025B80070470020FCE70020FAE70020F8E7C04653
:1025C8001C0C0020300A002010B51900541C01D141
:1025D800013103D00249183000F0FCFB10BDC046A1
:1025E800336A001010B5084B1C68002C00D110BDD0
:1025F800FFF73AFA2418054B1C61034B18680021B1
:1026080004F0E1FAF3E7C046200C0020F40B0020A8
:1026180070B504000E000023EFF3108572B60DE0CC
:102628000F4A13600F4B1E600F4B9868FFF7DAFFD5
:10263800002D02D162B6BFF36F8F0123002B0DD19D
:10264800094B00221A61A3001B195B00044A13609E
:10265800002CE7DD022BE3DA0223E1E770BDC04678
:10266800200C00201C0C0020F40B002010B50029C1
:102678000CD1EFF30583002B08D1074B9A699B68AF
:102688009A4203D00800FEF7C1FC04E0002902D1F9
:1026980062B6BFF36F8F10BDF40B00200023EFF379
:1026A800108172B600E00123002B0AD1054B9A680D
:1026B800D37B013BD3730029F5D162B6BFF36F8F8B
:1026C800F1E77047F40B002070B50500104804F0DE
:1026D8008BF9041E0FD0002D10D10E4B9A68537B36
:1026E800DB060BD1A369002B08D1D3897F2B05D931
:1026F800084B9A610BE0074BDC68ECE7054B9B68DD
:10270800A34202D02000FFF76DFF024B9C6170BD11
:10271800100C0020F40B002070B50500427B0D233F
:10272800C356002B0BDB6A7B80235B4213436B731E
:102738001A4BDC691C339C4210D100240EE07F2325
:10274800134043731648290004F038F9EBE763682F
:102758006B602C601D60656018E00024002C0DD0B3
:102768002100280004F010F90028F0DC002CF5D036
:102778000A4A126A9442F0D02468EFE7074B1A6AB3
:1027880019001C3129606A6015601D62034B986846
:10279800401B43425841FFF797FF70BDF40B0020E0
:1027A800100C002070B50400064B9D686B7BDB069F
:1027B80004D02800FFF716FF200070BD2800FFF79F
:1027C800ABFFF6E7F40B0020F8B50400EFF3108533
:1027D80072B62E00174B9868174B1B68984212D098
:1027E800154B00221A60154B1B68002B18D0FFF7F9
:1027F800CDFE002814D00F4B1B69A3420BDD0D4AF8
:102808001B1B13610FE0FFF7EDFE002D10D162B620
:10281800BFF36F8F0CE02800FFF7C4FF060002E04B
:10282800044B00221A61002E02D162B6BFF36F8FEB
:10283800F8BDC046F40B0020180C0020200C002026
:1028480070B50400427B0D23C356002B04DBD3066E
:1028580002D18669002E00D070BD80235B421343ED
:102868004373154BDD691C339D4208D1350006E0E2
:102878006B68636025601C606C6018E03500002D93
:102888000DD02900200004F07FF80028F0DC002D8E
:10289800F5D0094A126A9542F0D02D68EFE7064B49
:1028A8001A6A19001C312160626014601C620020E1
:1028B800FFF70AFFD0E7C046F40B002010B5EFF38E
:1028C800108472B6437B590705D4002C0CD162B62C
:1028D800BFF36F8F08E0042293434373FFF7B0FF01
:1028E80002482100FFF7C2FE10BDC046240C00209C
:1028F80010B50400427B0D23C356002B07DB084BA1
:102908009868001B43425841FFF7DEFE10BD7F2345
:10291800134043730348210004F050F8EFE7C04622
:10292800F40B0020100C002010B50C001100084B0F
:102938009868084A1060EFF3108272B69868029A95
:10294800039B04F0E2F82000FEF760FB10BDC046D0
:10295800F40B0020180C0020F8B5CE46474680B589
:1029680005000F000023EFF3108672B600202BE05D
:1029780063686B602C601D60656018E04446002C3D
:102988000DD02100280003F0FFFF0028F0DC002C08
:10299800F5D01E4A126A9442F0D02468EFE71B4B28
:1029A8001A6A19001C3129606A6015601D620120CD
:1029B800FFF78AFE012001E0AF730020002E02D14C
:1029C80062B6BFF36F8F0123002B1BD16B7BDA0636
:1029D800F2D1AA699046002AEED17F3213406B7378
:1029E8000B4B29009946180003F0E8FFAF736A7B88
:1029F80080235B4213436B734B461C684C45BED126
:102A08004446BCE7C0BCB946B046F8BDF40B00204C
:102A1800100C002070B50400183004F0BAF8002338
:102A2800EFF3108572B608E07F23134063731448F0
:102A3800210003F0C3FF07E00123002B15D1627BBF
:102A48000D23E356002BEFDB637B102213436373E4
:102A58000C4B9868001B43425841FFF735FE002D88
:102A6800EAD162B6BFF36F8FE6E7064B9B68A342D5
:102A780000D070BDEFF3108072B603F08FFFF8E757
:102A8800100C0020F40B002010B50023EFF3108485
:102A980072B600E00123002B0DD10A4B9A68D37B54
:102AA8000133D3730020FFF70FFE002CF2D162B67A
:102AB800BFF36F8FEEE7EFF3108072B603F06EFF8F
:102AC80010BDC046F40B002010B50400427B13076C
:102AD8001ED4082113000B4343732023100098438E
:102AE80003000B43DBB263735BB2002B11DBA368FB
:102AF800002B02D0200003F069FF2000183004F0FA
:102B080048F82000583003F0BEFF0120FFF7DCFD35
:102B180010BD5F231340082213436373024821004A
:102B280003F04CFFE3E7C046100C002010B5044842
:102B380004F015F800210020FFF76AFD10BDC0461B
:102B48000C0C0020F8B5EFF3108672B61D4CA16886
:102B58004A7B7F2313404B7327001C37380003F050
:102B68002DFFA5686A7B80235B4213436B73E4697E
:102B7800BC4208D1002406E063686B602C601D60CD
:102B8800656018E00024002C0DD02100280003F017
:102B9800FBFE0028F0DC002CF5D00A4A126A9442A9
:102BA800F0D02468EFE7074B1A6A19001C31296036
:102BB8006A6015601D620120FFF786FD3000FEF790
:102BC80025FAF8BDF40B0020F0B5C64600B50400A0
:102BD8000D0003000B4330D002225242D317121BC0
:102BE800AB41002B2DDD02267642361BEFF3108811
:102BF80072B61A4FB8681A4B1860FFF779FEB868B2
:102C08001849183022002B0000F0E4F8BA68537B0A
:102C180010210B4353734046FEF7F8F934000025A2
:102C280003F0F8FF02000023A41A9D41002D12DCD6
:102C38000FD0002080BCB846F0BDFFF783FF00200E
:102C4800F8E7002B01D1002ACDD103F0E3FF0619E4
:102C5800CCE7002CEDD02000ECE7C046F40B0020B8
:102C6800180C0020336A001010B50B00421C07D066
:102C7800FFF7AAFFC1170A220023FDF74BFB10BD7F
:102C88000133F5D1034B9868FFF7C4FE0120404299
:102C9800F5E7C046F40B0020014B98687047C04622
:102CA800F40B002070B50400EFF3108572B62E0007
:102CB800037BDB0708D4437B1B070ED5002D0BD104
:102CC80062B6BFF36F8F07E0002D02D162B6BFF383
:102CD8006F8F042062B602DF70BDFFF7F5FE094B67
:102CE8009B68A34205D0002EF6D162B6BFF36F8F62
:102CF800F2E7EFF30583002BF5D12800FEF786F9FC
:102D0800F1E7C046F40B002010B5064A0648121A2F
:102D1800064903F0E5FD064A0649074803F0E0FDC9
:102D280010BDC046AC08002000000020F478001058
:102D380000000000F478001000000020034B186821
:102D4800984200D070470020FCE7C046D406002017
:102D5800002804D0034A5268904201D000687047A6
:102D68000020FCE7D406002010B5044B1B68002B9C
:102D780001D0002010BDFEF777FEFBE7240C0020F1
:102D880070B5FFF7DBFF0400FFF7EEFF002C11D052
:102D9800226963690400C517121BAB41002B0BDCC9
:102DA80003D1802109068A4206D21000002B04DADA
:102DB800002002E0054800E00448054B1B69002B91
:102DC80002D0834200DA180070BDC046FFFFFF7FC3
:102DD800F40B0020D0B5CE4600B585B004000092B3
:102DE8000193009E019F3B003200013206D0A16092
:102DF8000023EFF3108272B691464AE00133F6D110
:102E080005B080BCB946D0BD002B01D1002A57D1EE
:102E18000122002354E001260027009A019BB618DE
:102E28005F41FFF7A1FF0290C3170393029A039B28
:102E3800B6185F412661676144E0921BBB4122617D
:102E48006361FFF785FF002812D006694769226988
:102E580063699F4202DCF0D19642EED9B61A9F41CF
:102E6800066147614368636020601C60446005E058
:102E78001C4B5A682360626014605C60FFF75EFF59
:102E8800844222D04B46002B02D162B6BFF36F8F2B
:102E98000123002BB4D102225242D3170098019982
:102EA800121A8B41002BB6DB0F4B1E685F68361871
:102EB8004F4102225242D317921BBB41002BA3DD84
:102EC80022616361FFF73AFFBDE7FFF759FF00286A
:102ED80003D0064B1B698342D4D00021FEF734FD92
:102EE800D0E7C046D4060020300B0020F40B0020A9
:102EF800F0B5C64600B50400FFF766FCEFF3108591
:102F080072B62E4B1C60FFF719FF04000DE0A36892
:102F180020009847EFF3108572B6284A1368414697
:102F28005B1A1360FFF70AFF0400002C20D0236906
:102F380098466269214B1968CB179A4218DC15D05C
:102F48001F494646F7170A684B6892197B410A6081
:102F58004B600022002322616361200003F003FE1E
:102F6800002DD4D162B6BFF36F8FD0E78845E7D97B
:102F7800002C09D02269636910490E683000F117E6
:102F8800121A8B41226163610D4E0C4C23681800A4
:102F9800D9173268736812184B4132607360002386
:102FA8002360FFF7EDFE0021FEF7CEFC002D02D1D5
:102FB80062B6BFF36F8F80BCB846F0BD240C00200A
:102FC800300B002070B50023EFF3108672B6002096
:102FD800002100E00123002B0ED1FFF7C5FE0400FD
:102FE800C517064B1868596800196941002EF1D1B8
:102FF80062B6BFF36F8FEDE770BDC046300B00209F
:1030080010B5024802F00DFC10BDC046A0750010B6
:1030180070B514001A000A4B06001B6884B0D86803
:10302800002C0AD0074B084D01930091330029006A
:10303800029400F00DF801F02FFB044B1C00F2E79E
:10304800DC060020E4750010F4750010F07500101F
:103058000EB400B582B003AB0100054804CB00688C
:10306800019300F0BDFB02B008BC03B01847C0468E
:10307800DC06002010B5034B0100186800F00EF8BC
:1030880010BDC046DC06002010B5034B01001868CF
:1030980001F0C0FC10BDC046DC060020F0B5454676
:1030A800DE4657464E46E0B50D0083B00B3500901E
:1030B800162D27D8102900D9C8E000F02FFB1025BD
:1030C80018230221C54FFB181A005C68083A94427D
:1030D80000D123E1032263689343E268A168CA60D0
:1030E80091600121E3185A6800980A435A6000F079
:1030F8001DFB2000083003B0F0BCBB46B246A94611
:10310800A046F0BD07239D4300D59FE0A94200D902
:103118009CE0009800F002FBFC235B009D4200D27B
:1031280057E1690A00D196E0042900D922E1382341
:103138009C46A9098C443931C800A84F38184468FE
:103148000838A0420CD0032604E0002AC5DAE46857
:10315800A04205D06368B3435A1B0F2AF5DD6146C8
:103168003A003C690832944200D1C6E00320636803
:103178008343581B0F2800DD3EE13A617A6100283D
:10318800AFDA7A68904680229200934200D3CBE06F
:10319800DA08580901238340404618438046D30083
:1031A800DB199A687860E360A2609C60D4600120B3
:1031B8008B109840404554D84346034206D1032318
:1031C80099434346400004310342FAD0032398460A
:1031D800CB009946B944CC468A466346DB680BE087
:1031E80044465A68A243561B1C00DB680F2E00DDBC
:1031F800CCE0002E00DBDEE09C45F1D108239B46A5
:10320800073BDC449B46DA4453469B07E5D103223F
:1032180009E008235B429C46E1444B469B68013920
:103228004B4500D0D6E10A42F3D17B6883437B60EB
:103238004000984215D8002804D112E00422944690
:103248004000E2440342F9D05146C1E70C23009AFA
:10325800002013604FE780203F2340219C468000D8
:103268006BE70322BC68636893439946AB4202D379
:103278005B1B0F2B44DC23004B44594A0193594BE9
:1032880093461B681268EB18013200D132E1564AA6
:10329800944663441B0B1B031E003100009800F08A
:1032A8004DFA03008046013300D1BFE0019B834201
:1032B80000D9B9E0B4464D4B19689A466144196083
:1032C800019B0A00834200D0CBE043461B0500D097
:1032D800C7E0BB683200984601234A441A43434674
:1032E8005A60434B1868884200D21960414B1868ED
:1032F800884200D2196044469AE07B68984656E7AF
:103308000122290013431143651961600098BD60CB
:103318006B6000F00BFA20000830ECE6DC68023144
:10332800A34200D11CE7D5E65A0A042A76D9142A02
:1033380000D9F9E010005C325B30D20008267642F2
:10334800B446BA189444624692680B36B14694451E
:1033580003D1D2E09268944504D04E465068B043F9
:103368009842F7D8D3689C466346A260E3609C60A5
:10337800D4601CE7142968D9542900D9DCE06E23ED
:103388009C46290B8C446F31C800D6E60120611990
:1033980005436560A5680837EB6030439D60B960F8
:1033A800F9604860CF6000988F60A65000F0BEF9C1
:1033B800200008309FE60120A2185168014351609F
:1033C800A2680098D3609A6000F0B0F92000083035
:1033D80091E62B00E908083374E6C0469002002005
:1033E800E0060020580C00200F100000280C0020D8
:1033F800540C0020500C00200126611935436560EB
:1034080039617961CA608A60320002434A60E050DB
:10341800009800F08BF9200008306CE69A0910003B
:1034280039323830D20089E7BC4214D0BC686268AF
:1034380003239A43531BAA4202D30F2B00DD5FE7F5
:10344800009800F073F9002055E65B239C468C44F5
:103458005C31C80071E6604BB4469A461A6862440B
:103468001A605B461B68013371D0434601995B1AA9
:103478009B18524613600723424641461A40019260
:10348800194242D08B1A0821884631009844534B80
:1034980041449B1A5B1A1B051B0D0E00009819006E
:1034A8009B4600F04BF9431C6CD04346C01A0300FE
:1034B8005B441E00534619680120320059441960C4
:1034C80043460243BB605A60BC4200D109E74B4601
:1034D8000F2B40D907220C3B93436268024005201A
:1034E8001A436260E218506090600F2B54D843462C
:1034F8005A68F6E610331E00CFE601238010834099
:1035080040461843804678602EE7330043445B42C8
:103518001B051B0D190000989B4600F00FF9431C72
:10352800C3D100239B46C5E7542A17D81A0B1000AD
:103538006F326E30D20001E7AA235B00994217D898
:10354800DD3B9C46E90B8C447831C800F5E55B46C9
:1035580042461A608FE74346586071E7AA20400048
:10356800824224D8DA0B100078327730D200E5E6B0
:103578001B4B994224D87C239C46A90C8C447D3152
:10358800C800DAE5B4464246019B083B63449B1AEF
:103598001E0000239B468DE721000098083101F0AA
:1035A80039FA53461968BB6898465A6899E60C4830
:1035B80082420BD89A0C10007D327C30D200BDE6D6
:1035C800FE207E237F219C468000B6E5FE227E20D9
:1035D8009200B3E67B682BE6280C00200810000058
:1035E80054050000F0B505000F2A33D90324030061
:1035F80026000B431E401C4237D11500103D2D09F3
:1036080003000C00AC462F013F1865685D60A56893
:103618009D60E568DD60256810341D601D0010336D
:10362800BD42F2D165460F230C2401352D014919FD
:103638001340451914421AD08C59AC5104369C1BBE
:10364800032CF9D8043B9B0801339B00ED18C918DB
:1036580003231A40561E002A06D00023CC5C1A0009
:10366800EC5401339642F9D1F0BD561EF5E71A0025
:10367800F0E7C046F0B50500830749D0541E002A7C
:1036880045D003000326CAB202E00135013C3ED30F
:1036980001332A703342F8D1032C30D9FF220A4073
:1036A8001502AD182A04AD180F2C34D92700103F85
:1036B8003F093E01B4461E001A00103666441560E4
:1036C80055609560D56010329642F8D101373F01B8
:1036D800DB190F270C22274022403C00002A0ED07D
:1036E8003E1FB608B400A4461A001C1D644420C23C
:1036F800A242FCD103240136B6009B193C40002CA1
:1037080005D0C9B21C19197001339C42FBD1F0BD18
:1037180003001400C0E72700E2E7C04610B50248DE
:1037280002F028FA10BDC0466008002010B5024813
:1037380002F027FA10BDC04660080020002370B5CB
:10374800064C050008002360FDF76CFE431C00D002
:1037580070BD2368002BFBD02B60F9E75C0C0020C0
:1037680010B583070AD00300032102E001330B429E
:1037780005D01A78002AF9D1181A10BD0300196863
:103788000C4A0D4C8A188A4322420FD15968094ABB
:1037980004338A188A43224208D15968054A0433F7
:1037A8008A188A432242F1D000E001331A78002AAD
:1037B800FBD1E1E7FFFEFEFE8080808010B50300AC
:1037C8004418002903D109E001339C4204D01A7837
:1037D800002AF9D1181A10BD201AFCE70020FAE7D0
:1037E800F0B55746DE464E464546E0B5BFB0924670
:1037F8001C00019000910593002803D0836B002BD7
:1038080000D1DDE1009B0C215A5E5B6EDB0703D41F
:10381800930501D400F065FD13075BD5009B1B6978
:10382800002B57D01A2313400A2B63D015AB1293E1
:1038380000235546149313930C930B930F930E93F5
:103848000393C74B15AE0A93C64B0D932B78002BE9
:1038580000D134E12C0003E063780134002B65D0FB
:10386800252BF9D1671BAC4264D12378002B00D1FA
:1038780025E1002310AAD370013B99460023617803
:10388800651C4F461C00029301350B00203B5A2B48
:1038980000D981E00A9A9B00D3589F46019B1800E3
:1038A800994601F04DFB436818000E93FFF758FF47
:1038B80080460F90484601F043FB83680B934346CC
:1038C800002B01D000F0FDFC2978DDE720232978C2
:1038D8001C43D9E7009D0198290000F075FE0028D7
:1038E80001D000F002FE2B000C229A5E1A2313402E
:1038F8000A2B9BD100990E200B5E002B96DB4B6E9A
:10390800DB0703D4920501D400F0C6FD230052461C
:103918000099019800F012FE039035E0029A059391
:1039280052420292042329781C43ADE7671BAC423C
:1039380000D1C4E0149A139BBA180133356077603C
:10394800149213930836072B03DD002A07D113922C
:1039580015AE039B9C46BC446346039385E70099D8
:10396800019812AA01F040F9002314931393002838
:10397800EED0009A0C21535E526ED20700D4B5E007
:103988005B0601D500F0BDFD03983FB0F0BCBB4617
:10399800B246A946A046F0BDA346002900D18EE054
:1039A800002310AAD37001339A4625AC21700493E2
:1039B8000023994602235A461A4006925A46134251
:1039C80001D09C46E24484275B465946139A3B4003
:1039D8000793531C9C461800149B0F4205D1574669
:1039E8000299CF1B002F00DDB5E310A9C978002983
:1039F80000D191E210AA03323260012201337260D1
:103A080014931390072800DC83E2002B09D0009957
:103A1800019812AA01F0E8F80023149313930028E0
:103A2800A7D1069B002B00D187E211AB1593022387
:103A38000120169315AE0200083601300799802937
:103A480000D182E24946049FCF1B002F00DDB8E277
:103A5800049A346094466344726014931390072860
:103A680000DCF2E2002B00D057E313935B465B07C0
:103A780000D429E350460299149B15AA0C1A002C6D
:103A880000DDEEE2029A524500DA524603998C466E
:103A9800944462460392002B0AD00099019812AA16
:103AA80001F0A2F8002314931393002800D060E7D4
:103AB800002313932B7815AE002B00D0CAE6149B75
:103AC800002B01D000F0FAFC0023139351E70A0001
:103AD8000020303A830029781B185B00D0180A00B0
:103AE800303A0135092AF5D90290CEE69A0500D573
:103AF80046E7009CA06D02F044F80C22A35E3FE765
:103B0800B9460023059FA34610CF10AAD3704B4691
:103B1800002C01D100F095FC013301D100F04DFCDF
:103B28004A460021200001F06FFA002801D100F078
:103B3800B8FC021BD343DB1704921A4000239246B9
:103B4800994605977BE0059BA34604CB25AC2270DC
:103B580005930022012310A99A46CA70049327E707
:103B680058770010C4780010A3465B46B946059AFA
:103B78009B0673D5072307329A4301339C46944426
:103B8800634605935368126809930892002B00DA7C
:103B98003AE14B46013300D147E180235A469A4324
:103BA8009346089A099B1100194300D03DE14B4602
:103BB800002B01D000F07DFCCA4604933EAC3EE0E9
:103BC80000F042FE1EE6102123000B43B9461900FF
:103BD800059A8B0600D431E3072307329A43013351
:103BE8009C4694446346059313685268BD4810ACDC
:103BF800084083460020E0704846013074D0BA4837
:103C080001401800104301D000F007FC5B46002279
:103C18008B46494600295FD1002A00D024E30132AF
:103C28001000184004901A4200D122E36323302187
:103C380025AAD15410ABB7249C468246644410ABE5
:103C4800DB785A1E93419A44B4E6102322001A43A3
:103C580093465B46B946059A9B068BD408CA0592DB
:103C68005A46D20600D5FBE25A46520600D4F3E281
:103C78001BB20893DB17099388E72978682900D1D4
:103C8800CDE340231C43FFE5102322001A43B94625
:103C980013009A0600D4C4E20721059A07328A4322
:103CA800100006C8089109920590002210A9CA7050
:103CB8004A469B46013200D1B7E080221900914361
:103CC8008B460899099A08001043021E00D0ACE000
:103CD8004946013200299FD0012A00D1E9E3002397
:103CE800022A00D1B8E3002207218C463EAC614687
:103CF80050071940DB080343180027003031013C06
:103D0800D20821701043F2D15B46DB0700D4E0E013
:103D1800302900D1DDE03023013C023F23703EAB67
:103D2800DB1B9A4604934B4500DAF8E23C0086E731
:103D38000220B94600220599044308C9A346059103
:103D48006A4C6B4911A804800C91002110A8C1701D
:103D58004946013100D1EEE18021584688430100EF
:103D68001800104300D0E5E15B4602228B4650E77D
:103D7800802329781C4387E523009B0600D48FE223
:103D8800059B039A1B681A60D2175A60059B043377
:103D980005935BE529786C2900D147E310231C4380
:103DA80072E5059B04CB0292002A00DAB6E5297871
:103DB800059369E5012329781C4365E510ABDB7899
:103DC8002978002B00D05FE5203310AAD3705BE57B
:103DD80029786B1C2A2900D198E30A00303A1D0083
:103DE8000027092A00D950E5BB002978DB195B00B8
:103DF8009F180A00303A0135092AF5D945E52B23E1
:103E080010AA2978D3703FE50899099A00244B42F3
:103E18009441089309942D2310AAD3704B4601337B
:103E280003D05A4680239A439346089B099C002C4A
:103E380013D1092B11D83033DBB2632225A98B5457
:103E48004B46CA46002B01DC01239A460123049302
:103E580010ABB7249C466444F1E680235A46DB0045
:103E68001A40002398465B4604934B4607969246B1
:103E7800089E099FAB463EAC069304E0002F00D194
:103E8800F4E24E462F000A22002330003900FCF7E6
:103E980041FA01239C465346013C303281460D00CD
:103EA8002270E044002BE9D00B9B1B784345E5D1F9
:103EB8004346FF2BE2D0002F00D097E2092E00D90D
:103EC80094E2069B5D469946049B089609979B4693
:103ED800079E3EAB1B1B9A4604934B4500DBAEE6A0
:103EE800CA46ACE6FFFBFFFF7FFBFFFF3078000010
:103EF8003C770010002B00D0FFE110ABDB78002BE3
:103F080000D1F6E110AB033315930123012016937A
:103F180015AE0200083601300699002900D18DE55A
:103F280011AA326002220233726014931390072898
:103F380000DC80E5002B00D066E107990120002213
:103F4800002315AE802900D07CE557460299CF1B87
:103F5800002F00DC76E5102F00DCC2E2CE49A04637
:103F68000C0005E0103F901C08360A00102F12DDE7
:103F7800102110337160511C346014931391072978
:103F8800F0DD002B00D0A9E0103F01200022002323
:103F980015AE102FECDC220084464446904642467B
:103FA80032606246DB19776014931392072A00DDAA
:103FB80063E14946049F0836501CCF1B002F00DCE4
:103FC80046E50D998846102F20DD10218946414687
:103FD800A0460C0005E0103F901C08360A00102F80
:103FE80011DD494610337160511C346014931391EC
:103FF8000729F0DD002B7DD1103F0120002200238E
:1040080015AE102FEDDC2200444690464246DB19DF
:104018003260776014931390072802DC0836013069
:1040280016E5002B0AD00099019812AA00F0DCFDD1
:10403800002314931393002800D09AE40122049BD0
:10404800159416931493139215AE5A46520700D43A
:1040580018E532005046029908320C1A002C00DC90
:1040680010E51398102C00DC36E28C49A84610277E
:1040780000260D0006E00230103C84460832080095
:10408800102C12DD1033411C1560576014931391E6
:104098000729F0DD002B00D0A3E00123103C9C464B
:1040A8000020002315AA102CECDC29004546884680
:1040B800414612C262461B1914931392072A00DC68
:1040C800E0E4002B00D02DE1029B534500DA534673
:1040D800039A94469C4463460393E9E40099019843
:1040E80012AA00F081FD002314931393002800D135
:1040F8004AE73EE40099019812AA00F075FD0023F2
:1041080014931393002800D176E7009A0C21535E8C
:10411800526ED20700D533E4E8E40099019812AA58
:1041280000F062FD002314931393002800D19DE44E
:10413800FFF71FFC8B460F200C9F3EAC1900014077
:10414800795C013C21701B0911070B431900120906
:104158001143F3D1BDE6102F00DCACE14F4988468E
:1041680040466146A046040006E0103F901C083611
:104178000A00102F11DD511C1020103334607060BC
:10418800149313910729F0DD002B17D1103F00225B
:104198000120002315AE102FEDDC22008446444692
:1041A8009046424632606246DB1977601493139258
:1041B800072A00DD9EE60836501C16E4009901988F
:1041C80012AA00F011FD0023149313930028DDD0E8
:1041D800009A0C21535E526ED20701D5FFF7D0FB2F
:1041E80084E40099019812AA00F0FEFC1496139634
:1041F800002800D151E7009A0C21535E526ED20775
:1042080001D5FFF7BDFB71E40099019812AA00F0EF
:10421800EBFC002314931393002800D18DE6FFF7DD
:10422800A8FB059904C90591D90603D4590600D4F9
:1042380014E192B208920022099236E508CA059262
:10424800CA0607D44A0602D500229BB2CEE48A05E4
:1042580000D50FE10022C9E45A46920500D50DE1C8
:104268000893DB17099391E400233EAC9A46049324
:10427800E5E400233EAC9A46E1E4002B00D0A2E03E
:104288004B46049A9F1A002F00DCD7E60023002231
:10429800012015AE97E6C046C4780010D478001007
:1042A8002300DB0600D5C7E023005B0600D5EEE05F
:1042B80023009B0500D4BFE0059B039A1B681A7076
:1042C80064E50B9B2978002B01D1FFF7DDFA1B78F9
:1042D800002B01D1FFF7D8FA8023DB001C43FFF73E
:1042E800D3FA009DA86D01F045FC0C23EA5EFFF7A8
:1042F80093FA0022012015AE0EE60099019812AA41
:1043080000F072FC002314931393002801D0FFF7E8
:1043180030FB10ABDB78002B00D0F3E5E9E7CA46A9
:104328003C008CE40099019812AA00F05DFC00237F
:1043380014931393002800D1C6E6FFF71AFBB94679
:104348002300A6E4A346774BB9460C935B46059A2F
:104358009B0627D5072307329A4301339C4694448A
:1043680063460593136852685846C0070AD5180073
:10437800104307D0302411A8417004700221584618
:10438800084383465846684908408346DDE4B946F1
:1043980021001DE4A346654BB9460C935B46059A7C
:1043A8009B06D7D408CA05925A46D20633D45A4631
:1043B80052062DD500229BB2D6E72000FFF7D0F990
:1043C8000200FFF7B7FB0099019812AA00F00CFC55
:1043D800002314931393002801D0FFF7CAFA4B4621
:1043E800049A9F1A002F00DC28E64FE70F9B0E99CE
:1043F800E41A1A00200001F0D9F80B994B788C4682
:104408005A1E93419C4463460B930023984638E513
:104418005A46920538D40022A6E78B4664E48023E6
:104428009B0069781C430135FFF72EFA2023697831
:104438001C430135FFF728FA059B039A1B681A608D
:10444800A4E40493062B01D906230493049B384C57
:104458009A460597FFF7ACFA00226CE6990500D456
:10446800E8E6D2B20892002209921EE4092E00D989
:1044780007E526E50022DBB2FFF7B8FB5BB208933D
:10448800DB170993FFF782FB0022DBB26CE7059B81
:10449800039A1B681A8079E4886D01F072FBFFF7B4
:1044A80035FA4B4604930023CA4605979946FFF709
:1044B800C6FB3023C1E41F4A904672E60099019872
:1044C80012AA00F091FB002314931393002801D142
:1044D800FFF7FAFAFFF74DFA411C8C461549884652
:1044E800E6E5154A8446904659E5009B5B6EDB0776
:1044F80007D4009B9B899B0503D4009B986D01F012
:1045080040FB01235B420393FFF73EFA059A80CAFA
:10451800002F01DA01277F42697805921D00FFF715
:10452800B3F9C04628770010FFFBFFFF3C77001067
:1045380050770010D4780010C4780010F0B51F0030
:1045480002231F4C1500A5440C0089896A4699432B
:104558006B469981636E80211993E3890600D381A4
:10456800E369C9000793636A16A809931AAB009315
:104578000493002302910591069301F0EEFA2A00B4
:104588003B0069463000FFF72BF9051E0EDA6B4633
:104598009B895B0603D54022A3891343A381169800
:1045A80001F0E4FA2800074B9D44F0BD694630004D
:1045B80000F00CF90028EAD001256D42E7E7C04673
:1045C80094FBFFFF6C040000324B70B505001868BF
:1045D8000C00002802D0836B002B21D00C22A35E94
:1045E8001A0723D52269002A2AD0D90708D500211D
:1045F800A160616900204942A161002A08D070BD0C
:104608000021980700D461690020A160002AF6D132
:104618001A06F4D5402213430120A3814042EEE755
:1046280000F012F90C22A35E1A07DBD4DA062BD5A8
:104638005A0714D4226908210B43A381002AD4D134
:10464800A02180208900800019408142CDD021001E
:10465800280000F079FC0C22A35E2269C5E7216BD3
:1046680000290AD022004032914204D0280000F0EC
:10467800D1F90C22A35E0022226324229343002254
:10468800626022692260D6E709222A603732134322
:10469800C2E7C046DC060020062010B500F0EEFE9A
:1046A8000120FCF7B5FEC046F0B5C64600B50C22A1
:1046B8008B5E07000C001A073CD44A68002A5CDDB0
:1046C800A66A002E32D000223D68E1693A60DA0419
:1046D80057D4002201233800B0470200431C67D09A
:1046E8000C21635EA66AE1695B0706D56368D21A86
:1046F800236B002B01D0E36BD21A00233800B0479C
:10470800431C47D00023636023692360A389DB042B
:104718003ED4216B3D60002908D0230040339942E4
:1047280002D0380000F076F900232363002080BC13
:10473800B846F0BD0E69002EF8D00D680022AD1BFA
:104748000E609B0700D14A69A260002D04DCEDE7EA
:1047580036182D1A002DE9DD636A320098463800B4
:104768002B00E169C0470028F2DC4022A3891343EB
:104778001BB20120A3814042D9E7CA6B002A9FDC03
:10478800D4E7226DB0E7626022692260DB04C0D5FD
:104798002065BEE73A680C21635E002AF3D01D2A23
:1047A80001D0162A0ED10023636023692360B0E785
:1047B8003B68002B00D193E71D2B01D0162BD4D1D9
:1047C8003D60B3E740221343D3E7C04670B5050008
:1047D8000C00002802D0836B002B15D00C22A35E9E
:1047E800002B17D0626ED20701D49B0514D5280080
:1047F8002100FFF759FF636E0500DB0702D4A38988
:104808009B0515D5280070BD00F01EF80C22A35E8C
:10481800002BE7D10025F5E7A06D01F0ABF92800E2
:104828002100FFF741FF636E0500DB07EAD4E6E7E6
:10483800A06D01F0A6F9E5E710B5024900F05CFBB0
:1048480010BDC046D5470010F8B5DE4657464E465F
:104858004546E0B506003D4F380001F08BF9B46BD2
:10486800002C6AD13A4B0322F363A6235B00F45071
:104878000433F2503200756859322800FF3204338D
:10488800F250513BFF3B08220021EB602C606C602A
:10489800AC606C662C616C61AC615C30FEF7EAFE62
:1048A80028002C4BED619B462B622B4B58309A46C7
:1048B8006B622A4B9946AB62294BEB62984601F032
:1048C8004CF9B568274B280008220021EB602C60C2
:1048D8006C60AC606C662C616C61AC615C30FEF73E
:1048E800C9FE5B462B6253466B624B462800AB629F
:1048F8004346ED61EB62583001F02FF9F5681A4B29
:10490800280008220021EB602C606C60AC606C66AB
:104918002C616C61AC615C30FEF7ACFE5B462B62CF
:1049280053466B624B462800AB624346ED61EB622F
:10493800583001F012F90123B363380001F021F96E
:10494800F0BCBB46B246A946A046F8BD7408002094
:1049580041480010115500103955001079550010C4
:10496800A95500100900010012000200F0B5C64662
:1049780000B588460500FEF7D1FE224FBB685E6889
:1049880003239E43204BF4184346E41A8023240B48
:10499800013C24035B019C4207DB00212800FEF751
:1049A800CDFEBB689B19984206D02800FEF7BEFED4
:1049B800002080BCB846F0BD28006142FEF7BEFE6C
:1049C80001300DD00122361BBB6816430F4A5E60CA
:1049D800136828001B1B1360FEF7A8FE0120E8E7F8
:1049E80000212800FEF7AAFEBA68831A0F2BDCDD27
:1049F800074C06492468001B086001210B435360DB
:104A0800D3E7C04690020020EF0F0000280C0020DA
:104A1800E0060020F8B5CE46474605000C0080B5F4
:104A2800002957D0FEF77AFE012321009C46083959
:104A380048686246030003249343CF187A68654E9A
:104A4800A243B468BC4200D170E0BC18A1466446D9
:104A58007A60044221D10868091A1B1888688046C0
:104A6800484640682040340008348146A04551D06B
:104A78004046CC68C460A0604846002811D19B1805
:104A88005548BA68824200D17FE0F868D0608260F9
:104A980001221A434A60CB5007E04846406820424A
:104AA800EDD062461A434A603B60802292009342EE
:104AB80014D2DA08580901238340706803437360ED
:104AC800D3009B199A68CB608A609960D1602800EE
:104AD800FEF72CFEC0BCB946B046F8BD5C0A042CF3
:104AE8003DD89C09200039343830E4003419226854
:104AF800083C0327944203D140E09268944203D0D3
:104B08005068B8439842F8D8D468CC608A60A160ED
:104B1800D160DCE7002858D1B868D218FB68C360B8
:104B28009860634613434B608A50D0E79A186346EF
:104B3800034206D10B68C91A8868D218CB68C360CB
:104B48009860012313434B60244BB1601B68934268
:104B5800BDD8234B28001968FFF708FFB7E7142CC6
:104B680007D9542C1AD81C0B20006F346E30E4007F
:104B7800BCE720005C345B30E400B7E70123801019
:104B88008340706803437360BFE7D1609160CA6077
:104B98008A6001221A434A60CB5098E7AA22520041
:104BA800944205D8DC0B200078347730E4009DE788
:104BB8000C4A944205D89C0C20007D347C30E400DB
:104BC80094E7FE247E20A40090E762461A434A60D8
:104BD8003B607CE79002002098020020E406002059
:104BE800580C002054050000F0B54E46DE465746E6
:104BF8004546E0B5936883B00C0091460090002BC1
:104C08005FD00C23CA5E130763D50B69002B60D0F5
:104C18004B461F68930723D5636A00269A46B34B11
:104C280000259846E169002D16D02B00454500D98E
:104C3800AE4B32000098D047002859DD4B464A4613
:104C48009B6836181B1A2D1A9360002B39D0636A9B
:104C5800E1699A46002DE8D13E687D680837E2E7A9
:104C6800D30762D50023B84600209A4600261F00C5
:104C7800002E45D000284CD03B00B3469E4200D9B8
:104C88009B4620682269A5686369904203D9ED189C
:104C9800AB4500DDFEE05B4500DDEEE0656A5246AF
:104CA800E1690098A847051E22DD01207F1B19D065
:104CB8004B464A469B68AA445B1B761B9360002BB5
:104CC800D6D1002003B0F0BCBB46B246A946A046E8
:104CD800F0BD21000098FFF777FC00280DD10C23C8
:104CE800E25E95E721000098FFF770FD0028DFD00D
:104CF8000C22A35E40221343A38101204042E1E736
:104D08000822434694465E68E044002EF8D01B68AB
:104D18009A4632000A21504600F076F9002800D160
:104D2800DBE053460130C71AA6E7002380219A46E4
:104D380089008B46564655462068A368844698469F
:104D4800002D5CD059460A425DD09A46AB4200D944
:104D580090E09023DB001A4232D02169431A60693F
:104D6800019343001B18D80FC3185810019B8246A3
:104D780001335B19834201D99A461800520500D4C1
:104D880097E001000098FEF789F98046031E00D1DC
:104D9800A6E0019A2169FEF725FCA389544A13402D
:104DA80080221343A38143462361019B1A00424496
:104DB800944622605246A846AA46D31A6261A36066
:104DC80052463100604600F059F94246A84600258F
:104DD800A36820689B1A5044A36020604B46424653
:104DE8009B6846449B1A4A46936000D169E70C23A6
:104DF800E25E2068A36884469846002DA2D13E68EA
:104E08007D6808379AE7226982421BD36269904617
:104E1800AA4217D8802328001B069D4200D3354894
:104E28004146FBF703FA4346626A43439046E16909
:104E380032000098C047002800DC59E78046434606
:104E4800ED1ACBE79846AB4200D9A8464246310056
:104E580000F014F94246A36820689B1A4044A360F6
:104E68002060002BEBD121000098FFF7AFFC002851
:104E7800E5D03DE7A846AA46A2E75A46514600F0C3
:104E8800FDF85A46A3685D469B1AA36023685B44F5
:104E980023600AE751462A0000F0F0F82368210051
:104EA8005B1900982360FFF791FC002800D1FCE60D
:104EB8001EE70200009800F039F98046002800D06B
:104EC80071E7009D21692800FFF7A4FD8022A389CE
:104ED8009343743A1BB22A600CE7731C1F00CCE69C
:104EE800009A0C3313600C22A35E03E700FCFF7FDB
:104EF8007FFBFFFFFFFFFF7FF8B54746CE4680B533
:104F080007008046894600264D37FF377D68BC6814
:104F1800013D0DD4A389012B07D90E22A35E0133CD
:104F280003D021004046C84706436834013DF1D20A
:104F38003F68002FEAD13000C0BCB946B046F8BD82
:104F480000487047D8070020F0B50C228B5E060099
:104F58000C0097B09A0707D52300433323602361D9
:104F68000123636117B0F0BD0E22895E002930DB92
:104F78006A4600F071FB002829DBF023019D1B0223
:104F88001D401F4B80279C4665446B425D41FF00D6
:104F980039003000FEF782F8002826D08021194A0F
:104FA800F263A28920600A43A28120616761002D13
:104FB800D8D030000E23E15E00F062FB0028D1D08B
:104FC8000322A389934301221343A381CAE70C2236
:104FD800A35E002540271B06DAD48027FF0039008E
:104FE8003000FEF75BF80028D8D10C22A35E9A05A2
:104FF800B8D40322934302221343A381ACE7C046EB
:1050080000E0FFFF4148001070B5CCB283070FD015
:10501800531E002A0AD0032504E00130284208D094
:10502800013B03D30278A242F7D170BD0020FCE710
:105038001300032B12D9FF220A401502AD182A04C7
:105048000C4EAD1803E0043B0430032B06D902686C
:1050580009496A40511891433142F4D0C218002BD3
:1050680003D1E3E701309042E0D00378A342F9D1BD
:10507800DBE7C04680808080FFFEFEFEF0B58842F8
:105088000AD98B18984207D2531E002A03D0CA5C4B
:10509800C254013BFBD2F0BD05000F2A0AD8561EA8
:1050A800002AF8D00023CC5C1A00EC540133964255
:1050B800F9D1F0E70324030026000B431E401C42ED
:1050C80030D11500103D2D0903000C00AC462F010E
:1050D8003F1825681D6065685D60A5689D60E56886
:1050E8001034DD601D001033BD42F2D165460F2338
:1050F8000C2401352D01491913404519144213D0C8
:105108008C59AC5104369C1B032CF9D8043B9B08E2
:1051180001339B00ED18C91803231A40561E002AB4
:10512800C0D1B8E7561EBDE71A00B8E7F0B5574634
:105138004E46DE464546E0B50C000600170083B033
:10514800002900D1ACE0FEF7E9FA08235B42994652
:10515800A1444B465B68032219003D0091430B357F
:10516800CA468846162D67D81025AF4267D8A84585
:105178006EDA4946C04841444A68009080689346C0
:10518800884200D1A0E00120844610006246904386
:1051980008184068104200D077E05A46032082433E
:1051A8009346C3445D454EDD6046184212D14B46D6
:1051B80048461B68C31A03209B465B688343D21882
:1051C80042440092954200DCCCE0434400939D4267
:1051D80000DCCBE039003000FDF760FF071E00D18E
:1051E8001EE14B4601225B68934302004B44083A98
:1051F800934200D1E3E04246043A242A00D9E3E08E
:1052080003002100132A09D92368036063684360F7
:105218001B2A00D9DCE00300083108330A681A6049
:105228004A685A608A689A6030002100FFF7F2FBEA
:105238003000FEF77BFA20E00432954395D50C2325
:105248000027336019E0D846CB688A68D3609A6033
:1052580043465F1B5346012250465B684044134057
:105268000F2F22D841460B4351464B6043681343E6
:1052780043603000FEF75AFA2700380003B0F0BC4C
:10528800BB46B246A946A046F0BD1A42A2D14B463B
:105298004A461B68D31A03229B465B68934394E7EC
:1052A8001100FDF7FBFE0700E7E751462B434919BC
:1052B800554617436B604F6043680831134343609A
:1052C8003000FFF7A7FBD4E703218A43944629005F
:1052D800C44410318C4500DB84E0DB0700D579E756
:1052E8004B4648461B68C31A03209B465B688343AA
:1052F800D21842440192914200DD66E75B465A4665
:10530800DB6892685F46D3609A604246043A083781
:10531800242A00D999E03B00132A0AD95946236860
:105328008B606368CB601B2A00D993E05B46083426
:10533800103322681A6062685A60A2689A605B46F5
:1053480001225919009B30009960019B5B1B134394
:105358004B605B465B6813405A462B435360FEF72D
:10536800E5F98AE7CB688A68D3609A605B465A4653
:10537800DB6892685F46D3609A604246043A083711
:10538800242A17D83B00132A09D9594623688B6069
:105398006368CB601B2A39D85B460834103322680F
:1053A8001A6062685A60A2689A60009B3C0098463E
:1053B800DA464DE721003800FFF760FEF5E70322E3
:1053C8005B689343984443E72100FFF757FE2BE7B8
:1053D800A3688360E368C360242A26D003001031E1
:1053E80010331BE74B465919009B0122996063460D
:1053F8005B1B13434B604B465B68300013404A46C7
:105408002B435360FEF792F9270036E7A3680B6138
:10541800E3684B61242A10D05B4610341833BEE78A
:105428003000FEF783F9002727E723691831036165
:105438000300626918334261F0E623698B615B46B9
:1054480062692033CA611834A9E721003800FFF7E0
:1054580015FE74E7A3680B61E3684B61242A03D047
:105468005B461034183364E723698B615B466269D5
:105478002033CA6118345CE790020020154B70B5E0
:1054880004001D681F281FD8A4235B00EB58002BBD
:105498000DD082009B181A68002A08D0012A04D06F
:1054A800511C0DD0002119609047002070BD2800C4
:1054B80000F026F822000100280000F00DF8F5E7BA
:1054C800162301202B60F1E7162301202B604042B0
:1054D800ECE7C046DC060020002370B5074D040049
:1054E800080011002B6000F02FFB431C00D070BD9A
:1054F8002B68002BFBD02360F9E7C0465C0C00202A
:1055080010B500F023FB10BD70B50C000E25495FE7
:1055180000F0F2F8002803DB236D1B18236570BD2B
:10552800A389024A1340A381F9E7C046FFEFFFFFB2
:10553800F8B50C001F000C23C95E05001600CB054A
:105548000AD40A4B320019402800A1810E23E15EDB
:105558003B0000F05BF8F8BD0E23E15E0022022359
:1055680000F0A0F80C23E15EEBE7C046FFEFFFFF79
:1055780070B50C000E25495F00F094F8431C07D065
:105588008023A2895B0113431BB22065A38170BDF0
:10559800A389024A13401BB2F8E7C046FFEFFFFF9A
:1055A80010B50E23C95E00F045F810BD03000B438B
:1055B80070B506009B070ED1032A0CD9114D04E0E3
:1055C800043A043110C6032A05D90C680E4BE318B7
:1055D800A3432B42F4D03300002406E00D5D013ACA
:1055E800355501330134002D02D0002AF6D170BDA3
:1055F80000219C18002AFAD019700133A342FBD16C
:10560800F5E7C04680808080FFFEFEFE70B504008E
:10561800080011001A000023054D2B6000F082FAE3
:10562800431C00D070BD2B68002BFBD02360F9E72A
:105638005C0C0020002370B5064C050008002360B0
:1056480000F076FA431C00D070BD2368002BFBD015
:105658002B60F9E75C0C0020002370B5074D0400AF
:10566800080011002B6000F073FA431C00D070BDD5
:105678002B68002BFBD02360F9E7C0465C0C0020A8
:10568800002370B5064C05000800236000F055FAA9
:10569800431C00D070BD2368002BFBD02B60F9E7BA
:1056A8005C0C002070B50400080011001A000023EB
:1056B800054D2B6000F03FFA431C00D070BD2B68ED
:1056C800002BFBD02360F9E75C0C002082B0002996
:1056D8000AD0002A0BD0002B0BD013780B6010785F
:1056E800431E984102B0704701A9002AF3D1002057
:1056F800F8E702204042F5E770B504000800110001
:105708001A000023054D2B6000F006FA431C00D058
:1057180070BD2B68002BFBD02360F9E75C0C0020E0
:10572800002909D0FF2A02D801200A7070478A236D
:10573800036001204042F9E70020F7E7704770B5A1
:1057480084680369150207D51D6801238B402B4225
:1057580002D0C023DB045A40C023DB041340B02529
:105768006D042A40A469A04770BD10B503000A0063
:1057780000681979FFF7E3FF10BD10B503000C00AE
:1057880000681979DA882243FAF778FE10BD10B557
:10579800002A06D001238B4019008368DB689847EC
:1057A80010BD01238B40190083681B699847F7E7F0
:1057B80010B503691C6801238B40234202D0534271
:1057C8005A41D2B2FFF7E3FF10BD10B503000068DD
:1057D8001B790121994083685B69984710BD10B512
:1057E8008368DB69002B02D00122984710BD862010
:1057F8004042FBE770B500280FDB0400C017050026
:10580800A10F83000B43A20012196B4192185B4150
:1058180010001900FDF728FA70BD0020EDE7002000
:1058280070470FB400B583B004A901C90191FAF714
:105838003DFF03B008BC04B0184710B504000800C9
:1058480011001A00A047FDF727FAFBF72FFD30B526
:1058580083B004000191027880235B4213430370F4
:105868000D000B782A2B1BD001A8FAF72DFF019BFE
:105878009D4212D0227880235B42134323706060DC
:10588800DBB29B07DB0F002812DB002213435B000F
:10589800227802218A4313432370019803B030BD54
:1058A8004378012213434370080001300190F5E763
:1058B8000122EBE710B582B0040001910B782E3B72
:1058C8005A42534159004278022082430A43627087
:1058D800002B19D0019B5A1C01925B782A2B15D0FA
:1058E80001A8FAF7F1FEA06023789B07DB0F0028D8
:1058F80014DB002213435B00227802218A431343FE
:105908002370019802B010BD0198FBE76378042268
:1059180013436370019801300190F3E70122E9E72E
:1059280070B505000C000C220021FDF7A3FE611CD8
:105938006378252B13D02800FAF7DAFE0100280037
:10594800FFF785FF01002800FFF7B4FF01002800DA
:10595800FAF708FF01002800FAF762FF70BDA01CE3
:10596800EB70FBE76F280CD005D970280BD078288E
:105978000BD168387047582801D00A20FAE7483810
:10598800F8E70820F6E71020F4E70A20F2E7F0B578
:10599800C64600B507000E009846002407E0551CCF
:1059A80010783100B84700280ADB01342A00424544
:1059B800F5D34346002B02D11378002BEFD12000FA
:1059C80080BCB846F0BD704710B500F06FFF10BD41
:1059D80010B501000068FFF7F7FF10BD10B540B221
:1059E800FBF7C0FA10BD10B500210120FFF7ECFF4E
:1059F80010BD10B5FBF7F2FAFBF79EFB10BD0020B7
:105A0800704710B500231370032901D0002010BD82
:105A18001100FBF7A1FBFAE7704710B5002404E07A
:105A280060B20021FBF7FEFB0134192CF8DD10BD34
:105A380043685A1E1A4206D1FF2B06D9036813423F
:105A480005D0002000E0002070470020FCE701207E
:105A5800FAE710B50400072803D8FBF753FC200029
:105A680010BD16204042FBE730B585B004000B6836
:105A7800019348688D68202813D980221206904225
:105A880011D80138FAF728FC1F23181A40001F33D1
:105A980003402B43039301A92000FFF7DAFF05B069
:105AA80030BD0823F5E73E23F3E7F8B5CE46474671
:105AB80080B580460F0099461500002609E0E8B237
:105AC8002100FFF7D1FF05000300163314D001357C
